{
    "txid": "3a897dbba348978d944df4037060cd1d3ec2d03a2094d16ca7de902dfc9d77fa",
    "hash": "3a897dbba348978d944df4037060cd1d3ec2d03a2094d16ca7de902dfc9d77fa",
    "version": 1,
    "size": 85,
    "vsize": 85,
    "weight": 340,
    "locktime": 0,
    "vin": [
        {
            "txid": "4d49a71ec9da436f71ec4ee231d04f292a29cd316f598bb7068feccabdc59485",
            "vout": 0,
            "scriptSig": {
                "asm": ""
                "hex": ""
            },
            "sequence": 4294967295
        }
    ],
    "vout": [
        {
            "value": 0.00100000,
            "n": 0,
            "scriptPubKey": {
                "asm": "OP_DUP OP_HASH160 fbb9c8295de62f57f03b0d38d12292a599a30cf1 OP_EQUALVERIFY OP_CHECKSIG",
                "hex": "76a914fbb9c8295de62f57f03b0d38d12292a599a30cf188ac",
                "address": "BTQ5nDW2ggevV95oApHak9nh3vrEwx9U7Y",
                "type": "pubkeyhash"
            }
        }
    ],
    "hex": "01000000018594c5bdcaec8f06b78b596f31cd292a294fd031e24eec716f43dac91ea7494d0000000000ffffffff01a0860100000000001976a914fbb9c8295de62f57f03b0d38d12292a599a30cf188ac00000000"
}
