{
    "txid": "babc81167172ccf66cb64207b20685c6dd02832f5e83c7e1077f0080dab75497",
    "hash": "babc81167172ccf66cb64207b20685c6dd02832f5e83c7e1077f0080dab75497",
    "version": 2,
    "size": 85,
    "vsize": 85,
    "weight": 340,
    "locktime": 0,
    "vin": [
        {
            "txid": "5897de6bd6027a475eadd57019d4e6872c396d0716c4875a5f1a6fcfdf385c1f",
            "vout": 0,
            "scriptSig": {
                "asm": "",
                "hex": ""
            },
            "sequence": 4294967293
        }
    ],
    "vout": [
        {
            "value": 0.18000000,
            "n": 0,
            "scriptPubKey": {
                "asm": "OP_DUP OP_HASH160 fbb9c8295de62f57f03b0d38d12292a599a30cf1 OP_EQUALVERIFY OP_CHECKSIG",
                "hex": "76a914fbb9c8295de62f57f03b0d38d12292a599a30cf188ac",
                "address": "BTQ5nDW2ggevV95oApHak9nh3vrEwx9U7Y",
                "type": "pubkeyhash"
            }
        }
    ],
    "hex": "02000000011f5c38dfcf6f1a5f5a87c416076d392c87e6d41970d5ad5e477a02d66bde97580000000000fdffffff0180a81201000000001976a914fbb9c8295de62f57f03b0d38d12292a599a30cf188ac00000000"
}
